:100000000C9454000C94510D0C94510D0C94EA096D
:100010000C94510D0C94510D0C94B9080C94510D85
:100020000C94510D0C94510D0C94510D0C94510DD8
:100030000C94510D0C94510D0C94510D0C94510DC8
:100040000C94510D0C94510D0C94510D0C94510DB8
:100050000C94510D0C94510D0C94510D0C94510DA8
:100060000C94510D0C94510D0C94510D0C94510D98
:100070000C94510D0C94510D0C94510D0C94510D88
:100080000C94510D0C94510D0C94510D0C94510D78
:1000900030003006803006300700103B3007300853
:1000A000001AB03008300D8011241FBECFEFCDBF35
:1000B000DFE3DEBFE0E9F0E040E017C0B591A591D5
:1000C00035912591059107FD0CC095918591EF0122
:1000D000F92FE82F05900D92A217B307D9F7FE016B
:1000E00004C01D92A217B307E1F7E83AF40731F70D
:0C00F0000E94250B0C94EA0CF894FFCF42
:1000FC00A1E9B1E0E4E8F0E00C942E0C7C015A018B
:10010C00C257DE4F68837983CE58D140C457DE4F37
:10011C0018821982CC58D140612C712C6E012EE7BB
:10012C00C21A2EEFD20A8EE891E08C0F9D1F029717
:10013C00C057DE4F88839983C059D140C257DE4FD8
:10014C00E881F981CE58D1408081882309F481C39C
:10015C008AE0D6011D928A95E9F782E091E08C0F36
:10016C009D1FF60186839783A0E8B0E0A087B18736
:10017C00BE0162577E4FC7010E94A80A8C01C2576C
:10018C00DE4FE881F981CE58D1408081811113C0B6
:10019C00C457DE4F88819981CC58D140080F191F64
:1001AC00C457DE4F08831983CC58D14080818532E7
:1001BC0009F038C33FC0853259F3C7010E946E085D
:1001CC004C010196A1F0C257DE4FE881F981CE585F
:1001DC00D1408081082E000C990B8816990639F0B5
:1001EC00B701C4010E940F0C8EEF9FEF26C3C457BA
:1001FC00DE4F88819981CC58D1400196C457DE4F8F
:10020C0088839983CC58D140C257DE4F888199811D
:10021C00CE58D1400196C257DE4F88839983CE5871
:10022C00D140BE0162577E4FC7010E94A80A080F39
:10023C00191FA5CFCF010196C257DE4F8883998332
:10024C00CE58D140D60114961D921C9215978181DF
:10025C008A3251F43296C257DE4FE883F983CE5876
:10026C00D14001E010E002C000E010E0C257DE4FC8
:10027C0088819981CE58D1400E947C09F6018483F3
:10028C009583C257DE4FE881F981CE58D1408081E9
:10029C00082E000C990BC0970A9740F43196C25760
:1002AC00DE4FE883F983CE58D140EBCFCE01825795
:1002BC009E4F0E94D00B582EC257DE4FE881F98119
:1002CC00CE58D1408081082E000C990B0E94190D3C
:1002DC00883691052CF5853691050CF0EEC08136EB
:1002EC00910509F4EAC04CF48532910509F465C115
:1002FC008B35910509F48DC188C28336910509F4BB
:10030C0001C18436910509F080C29E0124573E4FED
:10031C00A601BE016F5F7F4FC7010E944E0D24C026
:10032C008037910509F472C0A4F48E36910509F456
:10033C0094C0F4F58936910509F067C29E012457E3
:10034C003E4FA601BE016F5F7F4FC7010E944E0D4D
:10035C000BC08537910509F188379105A1F18337D9
:10036C00910509F052C200C197FD67C2C257DE4F1A
:10037C0088819981CE58D1400196C257DE4F88832F
:10038C009983CE58D1400115110509F03FC1652D57
:10039C0070E0950141E050E05BC09E0124573E4F58
:1003AC00A601BE016F5F7F4FC7010E944E0D15C0A5
:1003BC009E0124573E4FA601BE016F5F7F4FC701C0
:1003CC000E944E0D0AC09E0124573E4FA601BE014D
:1003DC006F5F7F4FC7010E944E0D97FD2EC2C25713
:1003EC00DE4F88819981CE58D1400196C257DE4F9D
:1003FC0088839983CE58D1400115110509F006C1A7
:10040C00652D70E0950140E050E022C09E0124571C
:10041C003E4FA601BE016F5F7F4FC7010E944E0D7C
:10042C0097FD0BC2C257DE4F88819981CE58D140BF
:10043C000196C257DE4F88839983CE58D14001155F
:10044C00110509F0E3C0950140E050E060EF70E069
:10045C00CE0101960E948F05F0C1C257DE4F8881F4
:10046C009981CE58D1400196C257DE4F888399832B
:10047C00CE58D140C357DE4F9881CD58D140C45788
:10048C00DE4F2881CC58D140892F880F880B2983C7
:10049C009A838B838C838D838E838F8388870115BE
:1004AC00110509F0B3C0652D70E0950140E050E0F6
:1004BC00CE0101960E948F05A9C09E0124573E4F84
:1004CC00A601BE016F5F7F4FC7010E944E0D97FDC5
:1004DC00B4C1C257DE4F88819981CE58D140019664
:1004EC00C257DE4F88839983CE58D1400115110530
:1004FC0009F08CC0652D70E0A501CE0101960E941B
:10050C00B5099BC1F0E85F1280C1D60114968D919C
:10051C009C911597892B31F481E090E014968D9382
:10052C009C931597C257DE4F88819981CE58D14044
:10053C000196C257DE4F88839983CE58D140012B48
:10054C0059F4D501ED91FC911197CF0102968D9341
:10055C009C930081118102C000E010E09E012457A1
:10056C003E4F40E050E024C0B0E85B124EC1C25791
:10057C00DE4F88819981CE58D1400196C257DE4F0B
:10058C0088839983CE58D140012B59F4D501ED9134
:10059C00FC911197CF0102968D939C930081118150
:1005AC0002C000E010E09E0124573E4F41E050E0B5
:1005BC00B601C7010E94030740C1B0E85B1225C118
:1005CC00C257DE4F88819981CE58D1400196C257CF
:1005DC00DE4F88839983CE58D140C7010E946E08A4
:1005EC008532910581F4C457DE4F88819981CC58AE
:1005FC00D1400196C457DE4F88839983CC58D140A3
:10060C0081E090E01AC1B7010E940F0C80E090E0ED
:10061C0014C1E0E85E12F9C0012B59F4D501ED913B
:10062C00FC911197CF0102968D939C9300811181BF
:10063C0002C000E010E0C257DE4FE881F981CE58CD
:10064C00D140CF010196C257DE4F88839983CE5893
:10065C00D14081818E3551F43296C257DE4FE883FA
:10066C00F983CE58D1409924939401C0912C41E048
:10067C0051E0692D70E0CE0101960E94000D1982A7
:10068C00C257DE4FE881F981CE58D14080818D323E
:10069C0069F43196C257DE4FE883F983CE58D140C6
:1006AC0081E089198FA741E049192AC08D35D9F706
:1006BC003196C257DE4FE883F983CE58D14081E0A2
:1006CC008919A0968FAFA097EECF882309F44DC05F
:1006DC008D3201F1C257DE4FE881F981CE58D140FD
:1006EC008191A2E0B0E0AC0FBD1FA80FB11D87FD3A
:1006FC00BA954C93C257DE4FE883F983CE58D1405C
:10070C00C257DE4FE881F981CE58D14080818D35BA
:10071C00E1F62BC0C057DE4FA881B981C059D1403A
:10072C008C918823B9F28D35A9F2CF010196C2576D
:10073C00DE4F88839983CE58D1408D919C91DC01FA
:10074C008C91082E000C990B2181022E000C330B7E
:10075C00821793070CF0BECF0196A1E0B0E0AC0F6E
:10076C00BD1FA80FB91F4C93EFCF0115110511F147
:10077C0018012101401A510AC7010E946E084C0150
:10078C00E2E0F0E0EC0FFD1FE80FF91F80818823F9
:10079C0071F1F10181921F01C457DE4F888199815B
:1007AC00CC58D1400196C457DE4F88839983CC58DE
:1007BC00D140DFCFC7010E946E084C01E2E0F0E0AF
:1007CC00EC0FFD1FE80FF91F8081882371F0C457CF
:1007DC00DE4F88819981CC58D1400196C457DE4FA9
:1007EC0088839983CC58D140E5CF412C512CB7014B
:1007FC00C4010E940F0C4114510439F0011511056C
:10080C0021F0F801E40DF51D1082C257DE4F8881EE
:10081C009981CE58D1400196C257DE4F8883998377
:10082C00CE58D14081E090E0FFEF8F169F0611F07B
:10083C0080E090E091958195910997FD03C0680E39
:10084C00791E7CCC8F3F2FEF920719F46114710441
:0E085C0009F0C301CF56DE4FE2E10C945F0CB1
:10086A000F931F93CF938B019C012A5131092C3C82
:10087A00310510F4C2E001C0C1E09C012C573109D6
:10088A002930310598F48EED9FE40E94F00B109206
:10089A00280A1092290AE0E0F4E084818F7D84839B
:1008AA00E0E6F4E084818F7D848340C08C37910533
:1008BA00F8F481EF9FE40E94F00B6C2F70E080EB5C
:1008CA0094E00E94A30C6093280A7093290AE0E638
:1008DA00F4E084818F7B8483A0E0B4E014968C9149
:1008EA001497806214968C9384818F7D84831EC0B2
:1008FA0084E090E50E94F00B6C2F70E080EB94E0AE
:10090A000E94A30C6093280A7093290AE0E6F4E097
:10091A00848180648483A0E0B4E014968C91149757
:10092A008F7D14968C93848180628483C8018C574E
:10093A0091090997A8F488E190E50E94F00BE0E696
:10094A00F4E084818F77848384818D7F8483E0E0DF
:10095A00F4E084818F7B848384818F7784833AC097
:10096A0005381105E0F082E290E50E94F00BE0E61E
:10097A00F4E084818F778483A0E0B4E014968C91AC
:10098A0014978F7714968C93149714968C911497C6
:10099A00806414968C938481826084831BC08EE267
:1009AA0090E50E94F00BE0E6F4E084818D7F848379
:1009BA00A0E0B4E014968C9114978F7B14968C93D4
:1009CA00149714968C911497806814968C9384814A
:0C09DA0080688483CF911F910F910895D5
:1009E600CF92DF92EF92FF920F931F93CF93DF93F5
:1009F600CDB7DEB7C358D109CDBFDEBFD82EC62EC0
:100A06008DE59FE40E94F00B8BE0E0E7FFE48E01AA
:100A16000F5F1F4FD80101900D928A95E1F7C8012B
:100A26000E948D0C66ED7EE4C8010E940209C80191
:100A36000E948F0B7E0181E8E80EF11CFF92EF9277
:100A46008BE79FE49F938F931F930F930E94B00BA6
:100A5600C7010E947C09E0E0F4E0908190629083F7
:100A66000F900F900F900F900F900F90811115C05F
:100A76002EE430E04EE450E060E070E080E890E084
:100A86000E9435042DE230E04DE250E060E070E077
:100A96008CE090E00E947C0A32C08130A9F42C2DB3
:100AA60030E04D2D50E060E070E080E090E00E9484
:100AB60035042CE030E041E150E061E170E08CE08B
:100AC60090E00E947C0A1BC08230A9F42C2D30E0F5
:100AD6004D2D50E060E070E08FEF90E00E9435040D
:100AE6002CE030E041E150E061E170E08CE090E024
:100AF6000E947C0A04C08FE79FE40E94F00BCD574A
:100B0600DF4FCDBFDEBFDF91CF911F910F91FF90D9
:080B1600EF90DF90CF900895ED
:100B1E00CF93DF93FC01D9016838710521F18CF474
:100B2E006138710561F12CF46038710509F476C0F5
:100B3E0085C062387105B1F16438710509F46EC073
:100B4E007DC0603A710509F469C024F460397105FD
:100B5E0049F174C0603C710509F460C0603F7105D5
:100B6E0009F45CC06BC0CD91DC911197CE01029659
:100B7E008D939C93A881B98180818C935CC0CD911B
:100B8E00DC911197CE0102968D939C93A881B98129
:100B9E0040815181628173814D935D936D937C93FE
:100BAE00139749C0CD91DC911197CE0102968D938A
:100BBE009C93452B99F070816181528143813481E0
:100BCE00258196818781E881F981708361835283C3
:100BDE00438334832583968387832DC0A881B9816F
:100BEE007081618152814381348125819681878113
:100BFE007C9311966C93119712965C9312971396A1
:100C0E004C93139714963C93149715962C93159713
:100C1E0016969C93169717968C930DC0CD91DC91DA
:100C2E001197CE0102968D939C93A881B9818081F4
:100C3E0091818D939C9381E090E002C080E090E0E2
:060C4E00DF91CF91089533
:100C540010C00E942F0D58F00E94280D40F029F476
:100C64005F3F29F00C943D0D51110C94370D0C94F9
:100C74004B0D0E946D0B68F39923B1F3552391F347
:100C8400951B550BBB27AA2762177307840738F0F7
:100C94009F5F5F4F220F331F441FAA1FA9F335D054
:100CA4000E2E3AF0E0E832D091505040E695001C08
:100CB400CAF72BD0FE2F29D0660F771F881FBB1FC2
:100CC400261737074807AB07B0E809F0BB0B802DA0
:100CD400BF01FF2793585F4F3AF09E3F510578F0CC
:100CE4000C943D0D0C94370D5F3FE4F3983ED4F320
:100CF400869577956795B795F7959F5FC9F7880FA0
:100D0400911D9695879597F90895E1E0660F771FF1
:100D1400881FBB1F621773078407BA0720F0621B82
:0E0D2400730B840BBA0BEE1F88F7E095089551
:100D32000FC00E94280D38F00E942F0D20F095233D
:100D420011F00C943D0D0C944B0D11240C94370DA5
:100D52000E946D0B70F3959FC1F3950F50E0551FE4
:100D6200629FF001729FBB27F00DB11D639FAA27FE
:100D7200F00DB11DAA1F649F6627B00DA11D661F4D
:100D8200829F2227B00DA11D621F739FB00DA11D6E
:100D9200621F839FA00D611D221F749F3327A00D28
:100DA200611D231F849F600D211D822F762F6A2FC4
:100DB20011249F5750409AF0F1F088234AF0EE0F29
:100DC200FF1FBB1F661F771F881F91505040A9F756
:100DD2009E3F510580F00C943D0D0C94370D5F3F02
:100DE200E4F3983ED4F3869577956795B795F79592
:100DF200E7959F5FC1F7FE2B880F911D969587950A
:040E020097F90895BF
:100E0600A0E0B0E0E9E0F7E00C94320C6C01EB01F5
:100E16005A017901452B49F00E944A0BF7012081BE
:100E26003181820F931F808391836C807D8048017E
:100E3600C0E0D0E06114710449F5C6010E946E0855
:100E46008F3FFFEF9F0731F4209789F101151105B8
:100E560009F527C0A114B10449F08032910551F17A
:100E66009C01295031092530310520F10115110564
:100E760011F0F40180832196F7018081918101961A
:100E860080839183FFEF8F1A9F0AD4CFC615D705AB
:100E9600A4F2DCCFA114B10421F0F801EC0FFD1F80
:100EA600108281E090E0CD2B61F480E00AC08FEFE4
:100EB6009FEF07C0B6010E940F0C0115110589F3BB
:0C0EC600ECCFCDB7DEB7EEE00C94630C6F
:100ED20024242400434D443E2000505A0D0A005061
:100EE200532C3031303230333034303530363037C5
:100EF2003038303930303041304230433044304580
:100F020030460D0A0050432C303130323033303409
:100F12003035303630373038303930303041304289
:100F220030433044304530462C30412C30320D0AAB
:100F3200005348572C303037322C30300D0A0041E4
:100F420064766572746973696E672076696120429E
:100F52006C7565746F6F74680D0A0052656164691F
:100F62006E672066726F6D20424C450D0A00534831
:100F7200522C303037320D0A00253273004275662A
:100F82002077617320756E7265616461626C652E93
:060F92002E2E200D0A00C6
:100F98005570646174696E6720486F726E20776956
:100FA800746820506F73697469766520537461742E
:100FB80075730D0A005570646174696E6720486F17
:100FC800726E2077697468205A65726F2053746155
:100FD8007475730D0A0053746174696F6E61727968
:100FE8002044726976650D0A0044726976696E67F5
:100FF80020466F7277617264730D0A0044726976D5
:10100800696E67204261636B77617264730D0A00D1
:101018004E6F205475726E0D0A004C65667420542C
:1010280075726E0D0A005269676874205475726E85
:031038000D0A009E
:01103B0002B2
:10103C000F931F93CF93DF9380910830811143C09E
:10104C0060910B3070E080E090E00E94410920E05C
:10105C0030E04FE753E40E94430D20E030E048E4D9
:10106C0053E40E94470D0E94210D9B012356310928
:10107C00F90122F4EE27FF27E21BF30BCF0164E604
:10108C0070E00E94A30C162FCAE0D0E0CF01BE0185
:10109C000E94A30C082FCB01BE010E94A30CC82FE9
:1010AC001216130634F48CE394E50E94F00B8DE2D7
:1010BC0005C08FE494E50E94F00B81E1202F4C2FAA
:1010CC00612F0E947C0ADF91CF911F910F9108959F
:1010DC00CF93DF93DC011A968D919C911B9700970F
:1010EC00B9F001971A968D939C931B97FD01E80F0D
:1010FC00F91F808516962D913C9117972F5F3F4FC6
:10110C0016962D933C931797082E000C990B28C01C
:10111C008D919C91119790FF10C01296ED91FC91BE
:10112C0013978081082E000C990B0097B9F031961B
:10113C001296ED93FC9313970FC01E96ED91FC91B4
:10114C001F97309759F0ED01CD0109952E813F8104
:10115C002F5F3F4F2E833F83992702C08FEF9FEF66
:06116C00DF91CF91089510
:101172001F920F920FB60F9211242F933F934F930A
:101182005F936F937F938F939F93AF93BF93EF93ED
:10119200FF9383E894E50E94F00B8091090484FF99
:1011A2001FC080910830882359F010920830E0E087
:1011B200F4E084818F7B848384818F7784830BC066
:1011C20081E080930830E0E0F4E0848180648483ED
:1011D200848180688483E0E0F4E081858071818786
:1011E200FF91EF91BF91AF919F918F917F916F91FD
:1011F2005F914F913F912F910F900FBE0F901F90D3
:0212020018953D
:10120400AF92BF92CF92DF92EF92FF920F931F9310
:10121400CF93DF937C016B0180E8F70111928A95EB
:10122400E9F7FB0101900020E9F73197E61BF70B82
:10123400DE2FC0E05F01BB2408C087010C0F111D25
:101244000E94110DF8018083CF5FCD17B0F38C2F6E
:1012540090E08A199B09B6018E0D9F1D0E94DC0C3B
:10126400892B59F7DF91CF911F910F91FF90EF9048
:0A127400DF90CF90BF90AF90089577
:10127E00E89409C097FB3EF4909580957095619522
:10128E007F4F8F4F9F4F9923A9F0F92F96E9BB27D8
:10129E009395F695879577956795B795F111F8CF54
:1012AE00FAF4BB0F11F460FF1BC06F5F7F4F8F4FBF
:1012BE009F4F16C0882311F096E911C0772321F0B5
:1012CE009EE8872F762F05C0662371F096E8862F4D
:1012DE0070E060E02AF09A95660F771F881FDAF7A4
:0A12EE00880F9695879597F90895EB
:1012F800AC01FA0190814F5F5F4F9032D1F3292FF3
:10130800092E000C330B295031092530310588F39B
:101318009B3209F540E050E0319602C040E050E0D1
:1013280080E090E06AE02191022E000C330B2053FC
:1013380031092A30310548F4689FD001699FB00D02
:101348001124CD01821B930BEECF452B49F49195C7
:101358008195910908959D3209F741E050E0DCCF6D
:021368000895E6
:10136A00CF93DF93DC01FA0161387105A9F0633884
:10137A00710521F06038710519F50EC0C081D1815F
:10138A00CE010296808391838D919D910D90BC919F
:10139A00A02DE881F9810DC0C081D181CE010296CC
:1013AA0080839183E881F9818D919D910D90BC9103
:1013BA00A02D80839183A283B38381E090E002C051
:0A13CA0080E090E0DF91CF910895DC
:1013D4001F920F920FB60F9211242F933F934F93A6
:1013E4005F936F937F938F939F93AF93BF93EF9389
:1013F400FF9380910830811103C00E94FD0A06C04A
:1014040060910630809107300E94F3040E941E0808
:1014140081E080934301FF91EF91BF91AF919F9140
:101424008F917F916F915F914F913F912F910F9089
:081434000FBE0F901F901895E8
:10143C004E6567617469766520446973706C617977
:10144C000D0A00506F736974697665204469737076
:10145C006C61790D0A0052756E6E696E6720507260
:10146C006F6772616D210D0A0044656E6E6973526F
:10147C006F64656D616E00427574746F6E50757338
:0E148C006820496E746572727570740D0A00E6
:10149A000E94750B88F09F5798F0B92F9927B7517A
:1014AA00B0F0E1F0660F771F881F991F1AF0BA95FE
:1014BA00C9F714C0B13091F00E94360DB1E0089519
:1014CA000C94360D672F782F8827B85F39F0B93F0B
:1014DA00CCF3869577956795B395D9F73EF49095B1
:0E14EA008095709561957F4F8F4F9F4F0895AD
:1014F800CF93DF9300D000D0CDB7DEB792EE9093B4
:10150800A708E0EAF8E0958196FFFDCF89836A8312
:101518004B832C83DE0111969E012B5F3F4FE0EA3F
:10152800F8E08D918087858186FFFDCFA217B307EC
:10153800C1F7E0EAF8E08481836084832496CDBF14
:08154800DEBFDF91CF91089591
:10155000CF93DF93DB01ED91FC912081203259F094
:10156000022E000C330B295031092530310518F0BB
:1015700080E090E015C0EB010E944A0BE881F98100
:101580009F012F5F3F4F2883398321812032B1F3A0
:10159000022E000C330B295031092530310570F330
:0615A000DF91CF910895D8
:1015A60020E42093A708E0EAF8E0258126FFFDCF96
:1015B60023E02093A808E0EAF8E0258126FFFDCF86
:1015C600E0EAF8E021E4278321E02483662371F032
:1015D600A82FB92F90E022E085818823ECF780853B
:1015E6008D939F5F691711F02483F6CF87E0809370
:0415F600A4080895A8
:1015FA0066E080E090E30E94D30AE0E0F0E38081B5
:10160A0080930B30828180930C30848180930A30DE
:10161A0085818093093080910930882321F0809157
:10162A000A300E94770C2091063040910730609171
:10163A000C3080910B3070E090E00E9435040895E0
:10164A007894E0E0F4E080818460808324E588E592
:10165A0094E1215080409040E1F700C000C08081B1
:10166A008460808384818460848324E588E594E1AE
:10167A00215080409040E1F700C000C080818B7FFC
:0A168A00808384818B7F8483E1CF8D
:101694000F931F93CF93DF938C01C0E0D0E0C80178
:1016A4000E946E088F3F2FEF920779F080329105E8
:1016B40051F09C01295031092530310520F0B80141
:1016C4000E940F0C02C02196EACFCE01DF91CF9188
:0616D4001F910F91089523
:1016DA0057FD9058440F551F59F05F3F71F04795D9
:1016EA00880F97FB991F61F09F3F79F087950895BE
:1016FA00121613061406551FF2CF4695F1DF08C0DD
:10170A00161617061806991FF1CF869571056105F9
:04171A000894089592
:10171E00DC018C91882371F09D012F5F3F4F40E0DB
:10172E0050E04F5F5F4FF9012F5F3F4F9081911156
:10173E00F8CF03C0FD0140E050E08DE08083FD0155
:10174E00E40FF51F8AE081831282CD010E94F00B17
:02175E000895EC
:10176000A0E1B0E0E6EBFBE00C943E0CCE0101966C
:1017700020E1FC0111922A95E9F722E031E029836A
:101780003A832D893E892B833C83AE01475E5F4FB0
:101790006F89788D0E94470C6096E2E00C946F0C84
:1017A000CF93DF93EC0190E0E92FF0E0EE0FFF1F05
:1017B000E651F64A8081811102C081810EC0A88164
:1017C000B9812C91821305C091811196A883B983A8
:1017D00001C09F5F9B3040F3892FDF91CF91089527
:1017E000CF93DF93EC01AC0120E030E0E0E4F8E0DF
:1017F00009C0948195FFFDCFDA018D91AD018283FF
:101800002F5F3F4FDE010D900020E9F71197AC1BD1
:0E181000BD0B2A173B0768F3DF91CF910895B7
:10181E00FB018F3F2FEF9207B9F0228533852230DF
:10182E00310594F4A9014F5F5F4F42875387DB0167
:10183E00A20FB31F18968C93268137812150310940
:0E184E0026833783992708958FEF9FEF089523
:10185C002F923F924F925F926F927F928F929F92B4
:10186C00AF92BF92CF92DF92EF92FF920F931F93A2
:10187C00CF93DF93CDB7DEB7CA1BDB0BCDBFDEBF7B
:02188C000994BD
:10188E00A2E0B0E0EDE4FCE00C943C0C8C0149834A
:10189E005A83AE014F5F5F4F0E947E00F801208198
:1018AE0024FF02C08FEF9FEF2296E4E00C946D0CA4
:1018BE002A88398848885F846E847D848C849B84D2
:1018CE00AA84B984C884DF80EE80FD800C811B81E0
:1018DE00AA81B981CE0FD11DCDBFDEBFED01089516
:1018EE0081110BC088E99FE40E94F00B88E592E01D
:1018FE0080932A0A90932B0A08958DEB9FE40E9401
:0C190E00F00B10922A0A10922B0A089588
:10191A000F931F93CF93FC018081882359F08F0185
:10192A00C0E00E94090DCF5FF801EC0FF11D808124
:0C193A008111F7CFCF911F910F910895FC
:1019460097FB072E16F4009407D077FD09D00E9466
:10195600B70C07FC05D03EF4909581959F4F0895EE
:08196600709561957F4F089513
:10196E00AA1BBB1B51E107C0AA1FBB1FA617B707B7
:10197E0010F0A61BB70B881F991F5A95A9F78095D3
:08198E009095BC01CD01089504
:10199600092E0394000C11F4882352F0BB0F40F477
:1019A600BF2B11F460FF04C06F5F7F4F8F4F9F4FB7
:0219B600089592
:1019B800DC01FB019D912191921303C09111FACF93
:0C19C800292F892F90E0821B91090895BF
:1019D400EC010E94560D0E94550DCE010E94570D38
:0619E400CE010E94530D2C
:1019EA0068076C094C836A9074A07AC00080688882
:0619FA0000846C820081F4
:101A0000FC01480F591FE417F50711F06193FBCF54
:021A1000089537
:101A1200E0E0F8E0948195FFFDCF809302080895FD
:101A2200E0E0F8E084818823ECF7809100080895D3
:101A32009C01215431092A31310508F4806208954C
:0E1A42000E944D0A6894B1110C94370D08955E
:0E1A500000240A9416161706180609060895B3
:0E1A5E0000240A9412161306140605060895B5
:0E1A6C00E894BB2766277727CB0197F90895EA
:0C1A7A0097F99F6780E870E060E0089535
:081A86000E942A060C94CB0C0F
:081A8E000E9499060C94CB0C98
:061A96009FEF80EC0895B3
:061A9C0080E090E00895D7
:041AA2000C940000A0
:041AA6000E947C001E
:021AAA0008959D
:021AAC0008959B
:021AAE00089599
:011AB0000233
:00000001FF
